:020000040000FA
:020000000328D3
:040002000034003492
:0A00060007309F000313831600303B
:100010008600831206101520000000008618342088
:1000200006141520861834200A283C30B000000041
:1000300000000000000000000000000000000000C0
:1000400000003530B100000000000000000000009A
:100050000000000000003330B200B20B2D28B10BBD
:100060002B28B00B212808003130B00033300000BD
:10007000000000000000B1008430B200B20B3E2846
:0A008000B10B3C28B00B3628080035
:02400E00193F58
:00000001FF
